{
  "contractName": "NFTmint",
  "abi": [
    {
      "inputs": [],
      "stateMutability": "nonpayable",
      "type": "constructor"
    },
    {
      "anonymous": false,
      "inputs": [
        {
          "indexed": true,
          "internalType": "address",
          "name": "owner",
          "type": "address"
        },
        {
          "indexed": true,
          "internalType": "address",
          "name": "approved",
          "type": "address"
        },
        {
          "indexed": true,
          "internalType": "uint256",
          "name": "tokenId",
          "type": "uint256"
        }
      ],
      "name": "Approval",
      "type": "event"
    },
    {
      "anonymous": false,
      "inputs": [
        {
          "indexed": true,
          "internalType": "address",
          "name": "owner",
          "type": "address"
        },
        {
          "indexed": true,
          "internalType": "address",
          "name": "operator",
          "type": "address"
        },
        {
          "indexed": false,
          "internalType": "bool",
          "name": "approved",
          "type": "bool"
        }
      ],
      "name": "ApprovalForAll",
      "type": "event"
    },
    {
      "anonymous": false,
      "inputs": [
        {
          "indexed": true,
          "internalType": "address",
          "name": "from",
          "type": "address"
        },
        {
          "indexed": true,
          "internalType": "address",
          "name": "to",
          "type": "address"
        },
        {
          "indexed": true,
          "internalType": "uint256",
          "name": "tokenId",
          "type": "uint256"
        }
      ],
      "name": "Transfer",
      "type": "event"
    },
    {
      "inputs": [
        {
          "internalType": "address",
          "name": "to",
          "type": "address"
        },
        {
          "internalType": "uint256",
          "name": "tokenId",
          "type": "uint256"
        }
      ],
      "name": "approve",
      "outputs": [],
      "stateMutability": "nonpayable",
      "type": "function"
    },
    {
      "inputs": [
        {
          "internalType": "address",
          "name": "owner",
          "type": "address"
        }
      ],
      "name": "balanceOf",
      "outputs": [
        {
          "internalType": "uint256",
          "name": "",
          "type": "uint256"
        }
      ],
      "stateMutability": "view",
      "type": "function",
      "constant": true
    },
    {
      "inputs": [
        {
          "internalType": "uint256",
          "name": "tokenId",
          "type": "uint256"
        }
      ],
      "name": "getApproved",
      "outputs": [
        {
          "internalType": "address",
          "name": "",
          "type": "address"
        }
      ],
      "stateMutability": "view",
      "type": "function",
      "constant": true
    },
    {
      "inputs": [
        {
          "internalType": "address",
          "name": "owner",
          "type": "address"
        },
        {
          "internalType": "address",
          "name": "operator",
          "type": "address"
        }
      ],
      "name": "isApprovedForAll",
      "outputs": [
        {
          "internalType": "bool",
          "name": "",
          "type": "bool"
        }
      ],
      "stateMutability": "view",
      "type": "function",
      "constant": true
    },
    {
      "inputs": [],
      "name": "name",
      "outputs": [
        {
          "internalType": "string",
          "name": "",
          "type": "string"
        }
      ],
      "stateMutability": "view",
      "type": "function",
      "constant": true
    },
    {
      "inputs": [
        {
          "internalType": "uint256",
          "name": "tokenId",
          "type": "uint256"
        }
      ],
      "name": "ownerOf",
      "outputs": [
        {
          "internalType": "address",
          "name": "",
          "type": "address"
        }
      ],
      "stateMutability": "view",
      "type": "function",
      "constant": true
    },
    {
      "inputs": [
        {
          "internalType": "address",
          "name": "from",
          "type": "address"
        },
        {
          "internalType": "address",
          "name": "to",
          "type": "address"
        },
        {
          "internalType": "uint256",
          "name": "tokenId",
          "type": "uint256"
        }
      ],
      "name": "safeTransferFrom",
      "outputs": [],
      "stateMutability": "nonpayable",
      "type": "function"
    },
    {
      "inputs": [
        {
          "internalType": "address",
          "name": "from",
          "type": "address"
        },
        {
          "internalType": "address",
          "name": "to",
          "type": "address"
        },
        {
          "internalType": "uint256",
          "name": "tokenId",
          "type": "uint256"
        },
        {
          "internalType": "bytes",
          "name": "_data",
          "type": "bytes"
        }
      ],
      "name": "safeTransferFrom",
      "outputs": [],
      "stateMutability": "nonpayable",
      "type": "function"
    },
    {
      "inputs": [
        {
          "internalType": "address",
          "name": "operator",
          "type": "address"
        },
        {
          "internalType": "bool",
          "name": "approved",
          "type": "bool"
        }
      ],
      "name": "setApprovalForAll",
      "outputs": [],
      "stateMutability": "nonpayable",
      "type": "function"
    },
    {
      "inputs": [
        {
          "internalType": "bytes4",
          "name": "interfaceId",
          "type": "bytes4"
        }
      ],
      "name": "supportsInterface",
      "outputs": [
        {
          "internalType": "bool",
          "name": "",
          "type": "bool"
        }
      ],
      "stateMutability": "view",
      "type": "function",
      "constant": true
    },
    {
      "inputs": [],
      "name": "symbol",
      "outputs": [
        {
          "internalType": "string",
          "name": "",
          "type": "string"
        }
      ],
      "stateMutability": "view",
      "type": "function",
      "constant": true
    },
    {
      "inputs": [
        {
          "internalType": "uint256",
          "name": "index",
          "type": "uint256"
        }
      ],
      "name": "tokenByIndex",
      "outputs": [
        {
          "internalType": "uint256",
          "name": "",
          "type": "uint256"
        }
      ],
      "stateMutability": "view",
      "type": "function",
      "constant": true
    },
    {
      "inputs": [
        {
          "internalType": "address",
          "name": "owner",
          "type": "address"
        },
        {
          "internalType": "uint256",
          "name": "index",
          "type": "uint256"
        }
      ],
      "name": "tokenOfOwnerByIndex",
      "outputs": [
        {
          "internalType": "uint256",
          "name": "",
          "type": "uint256"
        }
      ],
      "stateMutability": "view",
      "type": "function",
      "constant": true
    },
    {
      "inputs": [],
      "name": "totalSupply",
      "outputs": [
        {
          "internalType": "uint256",
          "name": "",
          "type": "uint256"
        }
      ],
      "stateMutability": "view",
      "type": "function",
      "constant": true
    },
    {
      "inputs": [
        {
          "internalType": "address",
          "name": "from",
          "type": "address"
        },
        {
          "internalType": "address",
          "name": "to",
          "type": "address"
        },
        {
          "internalType": "uint256",
          "name": "tokenId",
          "type": "uint256"
        }
      ],
      "name": "transferFrom",
      "outputs": [],
      "stateMutability": "nonpayable",
      "type": "function"
    },
    {
      "inputs": [
        {
          "internalType": "uint256",
          "name": "tokenId",
          "type": "uint256"
        }
      ],
      "name": "tokenURI",
      "outputs": [
        {
          "internalType": "string",
          "name": "",
          "type": "string"
        }
      ],
      "stateMutability": "view",
      "type": "function",
      "constant": true
    },
    {
      "inputs": [
        {
          "internalType": "address",
          "name": "player",
          "type": "address"
        },
        {
          "internalType": "string",
          "name": "tokenURI",
          "type": "string"
        }
      ],
      "name": "mintOpera",
      "outputs": [
        {
          "internalType": "uint256",
          "name": "",
          "type": "uint256"
        }
      ],
      "stateMutability": "nonpayable",
      "type": "function"
    },
    {
      "inputs": [],
      "name": "totalVNFSupply",
      "outputs": [
        {
          "internalType": "uint256",
          "name": "",
          "type": "uint256"
        }
      ],
      "stateMutability": "view",
      "type": "function",
      "constant": true
    }
  ],
  "bytecode": "0x60806040523480156200001157600080fd5b506040518060400160405280600881526020017f56656e616672756d0000000000000000000000000000000000000000000000008152506040518060400160405280600381526020017f564e460000000000000000000000000000000000000000000000000000000000815250816000908051906020019062000096929190620000b8565b508060019080519060200190620000af929190620000b8565b505050620001cd565b828054620000c69062000168565b90600052602060002090601f016020900481019282620000ea576000855562000136565b82601f106200010557805160ff191683800117855562000136565b8280016001018555821562000136579182015b828111156200013557825182559160200191906001019062000118565b5b50905062000145919062000149565b5090565b5b80821115620001645760008160009055506001016200014a565b5090565b600060028204905060018216806200018157607f821691505b602082108114156200019857620001976200019e565b5b50919050565b7f4e487b7100000000000000000000000000000000000000000000000000000000600052602260045260246000fd5b6132be80620001dd6000396000f3fe608060405234801561001057600080fd5b50600436106101165760003560e01c806342842e0e116100a257806395d89b411161007157806395d89b4114610319578063a22cb46514610337578063b88d4fde14610353578063c87b56dd1461036f578063e985e9c51461039f57610116565b806342842e0e1461026d5780634f6ccce7146102895780636352211e146102b957806370a08231146102e957610116565b806314cadef5116100e957806314cadef5146101b557806318160ddd146101e557806323b872dd146102035780632e9181601461021f5780632f745c591461023d57610116565b806301ffc9a71461011b57806306fdde031461014b578063081812fc14610169578063095ea7b314610199575b600080fd5b61013560048036038101906101309190612346565b6103cf565b6040516101429190612bd6565b60405180910390f35b610153610449565b6040516101609190612bf1565b60405180910390f35b610183600480360381019061017e9190612398565b6104db565b6040516101909190612b6f565b60405180910390f35b6101b360048036038101906101ae919061230a565b610560565b005b6101cf60048036038101906101ca91906122b6565b610678565b6040516101dc9190612e53565b60405180910390f35b6101ed6106b0565b6040516101fa9190612e53565b60405180910390f35b61021d600480360381019061021891906121b0565b6106bd565b005b61022761071d565b6040516102349190612e53565b60405180910390f35b6102576004803603810190610252919061230a565b610733565b6040516102649190612e53565b60405180910390f35b610287600480360381019061028291906121b0565b6107d8565b005b6102a3600480360381019061029e9190612398565b6107f8565b6040516102b09190612e53565b60405180910390f35b6102d360048036038101906102ce9190612398565b61088f565b6040516102e09190612b6f565b60405180910390f35b61030360048036038101906102fe919061214b565b610941565b6040516103109190612e53565b60405180910390f35b6103216109f9565b60405161032e9190612bf1565b60405180910390f35b610351600480360381019061034c919061227a565b610a8b565b005b61036d600480360381019061036891906121ff565b610c0c565b005b61038960048036038101906103849190612398565b610c6e565b6040516103969190612bf1565b60405180910390f35b6103b960048036038101906103b49190612174565b610dc0565b6040516103c69190612bd6565b60405180910390f35b60007f780e9d63000000000000000000000000000000000000000000000000000000007bffffffffffffffffffffffffffffffffffffffffffffffffffffffff1916827bffffffffffffffffffffffffffffffffffffffffffffffffffffffff19161480610442575061044182610e54565b5b9050919050565b606060008054610458906130b3565b80601f0160208091040260200160405190810160405280929190818152602001828054610484906130b3565b80156104d15780601f106104a6576101008083540402835291602001916104d1565b820191906000526020600020905b8154815290600101906020018083116104b457829003601f168201915b5050505050905090565b60006104e682610f36565b610525576040517f08c379a000000000000000000000000000000000000000000000000000000000815260040161051c90612d93565b60405180910390fd5b6004600083815260200190815260200160002060009054906101000a900473ffffffffffffffffffffffffffffffffffffffff169050919050565b600061056b8261088f565b90508073ffffffffffffffffffffffffffffffffffffffff168373ffffffffffffffffffffffffffffffffffffffff1614156105dc576040517f08c379a00000000000000000000000000000000000000000000000000000000081526004016105d390612df3565b60405180910390fd5b8073ffffffffffffffffffffffffffffffffffffffff166105fb610fa2565b73ffffffffffffffffffffffffffffffffffffffff16148061062a575061062981610624610fa2565b610dc0565b5b610669576040517f08c379a000000000000000000000000000000000000000000000000000000000815260040161066090612cd3565b60405180910390fd5b6106738383610faa565b505050565b6000610684600a611063565b6000610690600a611079565b905061069c8482611087565b6106a68184611255565b8091505092915050565b6000600880549050905090565b6106ce6106c8610fa2565b826112c9565b61070d576040517f08c379a000000000000000000000000000000000000000000000000000000000815260040161070490612e13565b60405180910390fd5b6107188383836113a7565b505050565b60008061072a600a611079565b90508091505090565b600061073e83610941565b821061077f576040517f08c379a000000000000000000000000000000000000000000000000000000000815260040161077690612c13565b60405180910390fd5b600660008473ffffffffffffffffffffffffffffffffffffffff1673ffffffffffffffffffffffffffffffffffffffff168152602001908152602001600020600083815260200190815260200160002054905092915050565b6107f383838360405180602001604052806000815250610c0c565b505050565b60006108026106b0565b8210610843576040517f08c379a000000000000000000000000000000000000000000000000000000000815260040161083a90612e33565b60405180910390fd5b6008828154811061087d577f4e487b7100000000000000000000000000000000000000000000000000000000600052603260045260246000fd5b90600052602060002001549050919050565b6000806002600084815260200190815260200160002060009054906101000a900473ffffffffffffffffffffffffffffffffffffffff169050600073ffffffffffffffffffffffffffffffffffffffff168173ffffffffffffffffffffffffffffffffffffffff161415610938576040517f08c379a000000000000000000000000000000000000000000000000000000000815260040161092f90612d13565b60405180910390fd5b80915050919050565b60008073ffffffffffffffffffffffffffffffffffffffff168273ffffffffffffffffffffffffffffffffffffffff1614156109b2576040517f08c379a00000000000000000000000000000000000000000000000000000000081526004016109a990612cf3565b60405180910390fd5b600360008373ffffffffffffffffffffffffffffffffffffffff1673ffffffffffffffffffffffffffffffffffffffff168152602001908152602001600020549050919050565b606060018054610a08906130b3565b80601f0160208091040260200160405190810160405280929190818152602001828054610a34906130b3565b8015610a815780601f10610a5657610100808354040283529160200191610a81565b820191906000526020600020905b815481529060010190602001808311610a6457829003601f168201915b5050505050905090565b610a93610fa2565b73ffffffffffffffffffffffffffffffffffffffff168273ffffffffffffffffffffffffffffffffffffffff161415610b01576040517f08c379a0000000000000000000000000000000000000000000000000000000008152600401610af890612c93565b60405180910390fd5b8060056000610b0e610fa2565b73ffffffffffffffffffffffffffffffffffffffff1673ffffffffffffffffffffffffffffffffffffffff16815260200190815260200160002060008473ffffffffffffffffffffffffffffffffffffffff1673ffffffffffffffffffffffffffffffffffffffff16815260200190815260200160002060006101000a81548160ff0219169083151502179055508173ffffffffffffffffffffffffffffffffffffffff16610bbb610fa2565b73ffffffffffffffffffffffffffffffffffffffff167f17307eab39ab6107e8899845ad3d59bd9653f200f220920489ca2b5937696c3183604051610c009190612bd6565b60405180910390a35050565b610c1d610c17610fa2565b836112c9565b610c5c576040517f08c379a0000000000000000000000000000000000000000000000000000000008152600401610c5390612e13565b60405180910390fd5b610c6884848484611603565b50505050565b6060610c7982610f36565b610cb8576040517f08c379a0000000000000000000000000000000000000000000000000000000008152600401610caf90612d73565b60405180910390fd5b6000600b60008481526020019081526020016000208054610cd8906130b3565b80601f0160208091040260200160405190810160405280929190818152602001828054610d04906130b3565b8015610d515780601f10610d2657610100808354040283529160200191610d51565b820191906000526020600020905b815481529060010190602001808311610d3457829003601f168201915b505050505090506000610d6261165f565b9050600081511415610d78578192505050610dbb565b600082511115610dad578082604051602001610d95929190612b4b565b60405160208183030381529060405292505050610dbb565b610db684611676565b925050505b919050565b6000600560008473ffffffffffffffffffffffffffffffffffffffff1673ffffffffffffffffffffffffffffffffffffffff16815260200190815260200160002060008373ffffffffffffffffffffffffffffffffffffffff1673ffffffffffffffffffffffffffffffffffffffff16815260200190815260200160002060009054906101000a900460ff16905092915050565b60007f80ac58cd000000000000000000000000000000000000000000000000000000007bffffffffffffffffffffffffffffffffffffffffffffffffffffffff1916827bffffffffffffffffffffffffffffffffffffffffffffffffffffffff19161480610f1f57507f5b5e139f000000000000000000000000000000000000000000000000000000007bffffffffffffffffffffffffffffffffffffffffffffffffffffffff1916827bffffffffffffffffffffffffffffffffffffffffffffffffffffffff1916145b80610f2f5750610f2e8261171d565b5b9050919050565b60008073ffffffffffffffffffffffffffffffffffffffff166002600084815260200190815260200160002060009054906101000a900473ffffffffffffffffffffffffffffffffffffffff1673ffffffffffffffffffffffffffffffffffffffff1614159050919050565b600033905090565b816004600083815260200190815260200160002060006101000a81548173ffffffffffffffffffffffffffffffffffffffff021916908373ffffffffffffffffffffffffffffffffffffffff160217905550808273ffffffffffffffffffffffffffffffffffffffff1661101d8361088f565b73ffffffffffffffffffffffffffffffffffffffff167f8c5be1e5ebec7d5bd14f71427d1e84f3dd0314c0f7b2291e5b200ac8c7c3b92560405160405180910390a45050565b6001816000016000828254019250508190555050565b600081600001549050919050565b600073ffffffffffffffffffffffffffffffffffffffff168273ffffffffffffffffffffffffffffffffffffffff1614156110f7576040517f08c379a00000000000000000000000000000000000000000000000000000000081526004016110ee90612d53565b60405180910390fd5b61110081610f36565b15611140576040517f08c379a000000000000000000000000000000000000000000000000000000000815260040161113790612c53565b60405180910390fd5b61114c60008383611787565b6001600360008473ffffffffffffffffffffffffffffffffffffffff1673ffffffffffffffffffffffffffffffffffffffff168152602001908152602001600020600082825461119c9190612f42565b92505081905550816002600083815260200190815260200160002060006101000a81548173ffffffffffffffffffffffffffffffffffffffff021916908373ffffffffffffffffffffffffffffffffffffffff160217905550808273ffffffffffffffffffffffffffffffffffffffff16600073ffffffffffffffffffffffffffffffffffffffff167fddf252ad1be2c89b69c2b068fc378daa952ba7f163c4a11628f55a4df523b3ef60405160405180910390a45050565b61125e82610f36565b61129d576040517f08c379a000000000000000000000000000000000000000000000000000000000815260040161129490612d33565b60405180910390fd5b80600b600084815260200190815260200160002090805190602001906112c4929190611f6f565b505050565b60006112d482610f36565b611313576040517f08c379a000000000000000000000000000000000000000000000000000000000815260040161130a90612cb3565b60405180910390fd5b600061131e8361088f565b90508073ffffffffffffffffffffffffffffffffffffffff168473ffffffffffffffffffffffffffffffffffffffff16148061138d57508373ffffffffffffffffffffffffffffffffffffffff16611375846104db565b73ffffffffffffffffffffffffffffffffffffffff16145b8061139e575061139d8185610dc0565b5b91505092915050565b8273ffffffffffffffffffffffffffffffffffffffff166113c78261088f565b73ffffffffffffffffffffffffffffffffffffffff161461141d576040517f08c379a000000000000000000000000000000000000000000000000000000000815260040161141490612db3565b60405180910390fd5b600073ffffffffffffffffffffffffffffffffffffffff168273ffffffffffffffffffffffffffffffffffffffff16141561148d576040517f08c379a000000000000000000000000000000000000000000000000000000000815260040161148490612c73565b60405180910390fd5b611498838383611787565b6114a3600082610faa565b6001600360008573ffffffffffffffffffffffffffffffffffffffff1673ffffffffffffffffffffffffffffffffffffffff16815260200190815260200160002060008282546114f39190612fc9565b925050819055506001600360008473ffffffffffffffffffffffffffffffffffffffff1673ffffffffffffffffffffffffffffffffffffffff168152602001908152602001600020600082825461154a9190612f42565b92505081905550816002600083815260200190815260200160002060006101000a81548173ffffffffffffffffffffffffffffffffffffffff021916908373ffffffffffffffffffffffffffffffffffffffff160217905550808273ffffffffffffffffffffffffffffffffffffffff168473ffffffffffffffffffffffffffffffffffffffff167fddf252ad1be2c89b69c2b068fc378daa952ba7f163c4a11628f55a4df523b3ef60405160405180910390a4505050565b61160e8484846113a7565b61161a8484848461189b565b611659576040517f08c379a000000000000000000000000000000000000000000000000000000000815260040161165090612c33565b60405180910390fd5b50505050565b606060405180602001604052806000815250905090565b606061168182610f36565b6116c0576040517f08c379a00000000000000000000000000000000000000000000000000000000081526004016116b790612dd3565b60405180910390fd5b60006116ca61165f565b905060008151116116ea5760405180602001604052806000815250611715565b806116f484611a32565b604051602001611705929190612b4b565b6040516020818303038152906040525b915050919050565b60007f01ffc9a7000000000000000000000000000000000000000000000000000000007bffffffffffffffffffffffffffffffffffffffffffffffffffffffff1916827bffffffffffffffffffffffffffffffffffffffffffffffffffffffff1916149050919050565b611792838383611bdf565b600073ffffffffffffffffffffffffffffffffffffffff168373ffffffffffffffffffffffffffffffffffffffff1614156117d5576117d081611be4565b611814565b8173ffffffffffffffffffffffffffffffffffffffff168373ffffffffffffffffffffffffffffffffffffffff1614611813576118128382611c2d565b5b5b600073ffffffffffffffffffffffffffffffffffffffff168273ffffffffffffffffffffffffffffffffffffffff1614156118575761185281611d9a565b611896565b8273ffffffffffffffffffffffffffffffffffffffff168273ffffffffffffffffffffffffffffffffffffffff1614611895576118948282611edd565b5b5b505050565b60006118bc8473ffffffffffffffffffffffffffffffffffffffff16611f5c565b15611a25578373ffffffffffffffffffffffffffffffffffffffff1663150b7a026118e5610fa2565b8786866040518563ffffffff1660e01b81526004016119079493929190612b8a565b602060405180830381600087803b15801561192157600080fd5b505af192505050801561195257506040513d601f19601f8201168201806040525081019061194f919061236f565b60015b6119d5573d8060008114611982576040519150601f19603f3d011682016040523d82523d6000602084013e611987565b606091505b506000815114156119cd576040517f08c379a00000000000000000000000000000000000000000000000000000000081526004016119c490612c33565b60405180910390fd5b805181602001fd5b63150b7a0260e01b7bffffffffffffffffffffffffffffffffffffffffffffffffffffffff1916817bffffffffffffffffffffffffffffffffffffffffffffffffffffffff191614915050611a2a565b600190505b949350505050565b60606000821415611a7a576040518060400160405280600181526020017f30000000000000000000000000000000000000000000000000000000000000008152509050611bda565b600082905060005b60008214611aac578080611a95906130e5565b915050600a82611aa59190612f98565b9150611a82565b60008167ffffffffffffffff811115611aee577f4e487b7100000000000000000000000000000000000000000000000000000000600052604160045260246000fd5b6040519080825280601f01601f191660200182016040528015611b205781602001600182028036833780820191505090505b5090505b60008514611bd357600182611b399190612fc9565b9150600a85611b48919061312e565b6030611b549190612f42565b60f81b818381518110611b90577f4e487b7100000000000000000000000000000000000000000000000000000000600052603260045260246000fd5b60200101907effffffffffffffffffffffffffffffffffffffffffffffffffffffffffffff1916908160001a905350600a85611bcc9190612f98565b9450611b24565b8093505050505b919050565b505050565b6008805490506009600083815260200190815260200160002081905550600881908060018154018082558091505060019003906000526020600020016000909190919091505550565b60006001611c3a84610941565b611c449190612fc9565b9050600060076000848152602001908152602001600020549050818114611d29576000600660008673ffffffffffffffffffffffffffffffffffffffff1673ffffffffffffffffffffffffffffffffffffffff168152602001908152602001600020600084815260200190815260200160002054905080600660008773ffffffffffffffffffffffffffffffffffffffff1673ffffffffffffffffffffffffffffffffffffffff168152602001908152602001600020600084815260200190815260200160002081905550816007600083815260200190815260200160002081905550505b6007600084815260200190815260200160002060009055600660008573ffffffffffffffffffffffffffffffffffffffff1673ffffffffffffffffffffffffffffffffffffffff16815260200190815260200160002060008381526020019081526020016000206000905550505050565b60006001600880549050611dae9190612fc9565b9050600060096000848152602001908152602001600020549050600060088381548110611e04577f4e487b7100000000000000000000000000000000000000000000000000000000600052603260045260246000fd5b906000526020600020015490508060088381548110611e4c577f4e487b7100000000000000000000000000000000000000000000000000000000600052603260045260246000fd5b906000526020600020018190555081600960008381526020019081526020016000208190555060096000858152602001908152602001600020600090556008805480611ec1577f4e487b7100000000000000000000000000000000000000000000000000000000600052603160045260246000fd5b6001900381819060005260206000200160009055905550505050565b6000611ee883610941565b905081600660008573ffffffffffffffffffffffffffffffffffffffff1673ffffffffffffffffffffffffffffffffffffffff168152602001908152602001600020600083815260200190815260200160002081905550806007600084815260200190815260200160002081905550505050565b600080823b905060008111915050919050565b828054611f7b906130b3565b90600052602060002090601f016020900481019282611f9d5760008555611fe4565b82601f10611fb657805160ff1916838001178555611fe4565b82800160010185558215611fe4579182015b82811115611fe3578251825591602001919060010190611fc8565b5b509050611ff19190611ff5565b5090565b5b8082111561200e576000816000905550600101611ff6565b5090565b600061202561202084612e9f565b612e6e565b90508281526020810184848401111561203d57600080fd5b612048848285613071565b509392505050565b600061206361205e84612ecf565b612e6e565b90508281526020810184848401111561207b57600080fd5b612086848285613071565b509392505050565b60008135905061209d8161322c565b92915050565b6000813590506120b281613243565b92915050565b6000813590506120c78161325a565b92915050565b6000815190506120dc8161325a565b92915050565b600082601f8301126120f357600080fd5b8135612103848260208601612012565b91505092915050565b600082601f83011261211d57600080fd5b813561212d848260208601612050565b91505092915050565b60008135905061214581613271565b92915050565b60006020828403121561215d57600080fd5b600061216b8482850161208e565b91505092915050565b6000806040838503121561218757600080fd5b60006121958582860161208e565b92505060206121a68582860161208e565b9150509250929050565b6000806000606084860312156121c557600080fd5b60006121d38682870161208e565b93505060206121e48682870161208e565b92505060406121f586828701612136565b9150509250925092565b6000806000806080858703121561221557600080fd5b60006122238782880161208e565b94505060206122348782880161208e565b935050604061224587828801612136565b925050606085013567ffffffffffffffff81111561226257600080fd5b61226e878288016120e2565b91505092959194509250565b6000806040838503121561228d57600080fd5b600061229b8582860161208e565b92505060206122ac858286016120a3565b9150509250929050565b600080604083850312156122c957600080fd5b60006122d78582860161208e565b925050602083013567ffffffffffffffff8111156122f457600080fd5b6123008582860161210c565b9150509250929050565b6000806040838503121561231d57600080fd5b600061232b8582860161208e565b925050602061233c85828601612136565b9150509250929050565b60006020828403121561235857600080fd5b6000612366848285016120b8565b91505092915050565b60006020828403121561238157600080fd5b600061238f848285016120cd565b91505092915050565b6000602082840312156123aa57600080fd5b60006123b884828501612136565b91505092915050565b6123ca81612ffd565b82525050565b6123d98161300f565b82525050565b60006123ea82612eff565b6123f48185612f15565b9350612404818560208601613080565b61240d8161321b565b840191505092915050565b600061242382612f0a565b61242d8185612f26565b935061243d818560208601613080565b6124468161321b565b840191505092915050565b600061245c82612f0a565b6124668185612f37565b9350612476818560208601613080565b80840191505092915050565b600061248f602b83612f26565b91507f455243373231456e756d657261626c653a206f776e657220696e646578206f7560008301527f74206f6620626f756e64730000000000000000000000000000000000000000006020830152604082019050919050565b60006124f5603283612f26565b91507f4552433732313a207472616e7366657220746f206e6f6e20455243373231526560008301527f63656976657220696d706c656d656e74657200000000000000000000000000006020830152604082019050919050565b600061255b601c83612f26565b91507f4552433732313a20746f6b656e20616c7265616479206d696e746564000000006000830152602082019050919050565b600061259b602483612f26565b91507f4552433732313a207472616e7366657220746f20746865207a65726f2061646460008301527f72657373000000000000000000000000000000000000000000000000000000006020830152604082019050919050565b6000612601601983612f26565b91507f4552433732313a20617070726f766520746f2063616c6c6572000000000000006000830152602082019050919050565b6000612641602c83612f26565b91507f4552433732313a206f70657261746f7220717565727920666f72206e6f6e657860008301527f697374656e7420746f6b656e00000000000000000000000000000000000000006020830152604082019050919050565b60006126a7603883612f26565b91507f4552433732313a20617070726f76652063616c6c6572206973206e6f74206f7760008301527f6e6572206e6f7220617070726f76656420666f7220616c6c00000000000000006020830152604082019050919050565b600061270d602a83612f26565b91507f4552433732313a2062616c616e636520717565727920666f7220746865207a6560008301527f726f2061646472657373000000000000000000000000000000000000000000006020830152604082019050919050565b6000612773602983612f26565b91507f4552433732313a206f776e657220717565727920666f72206e6f6e657869737460008301527f656e7420746f6b656e00000000000000000000000000000000000000000000006020830152604082019050919050565b60006127d9602e83612f26565b91507f45524337323155524953746f726167653a2055524920736574206f66206e6f6e60008301527f6578697374656e7420746f6b656e0000000000000000000000000000000000006020830152604082019050919050565b600061283f602083612f26565b91507f4552433732313a206d696e7420746f20746865207a65726f20616464726573736000830152602082019050919050565b600061287f603183612f26565b91507f45524337323155524953746f726167653a2055524920717565727920666f722060008301527f6e6f6e6578697374656e7420746f6b656e0000000000000000000000000000006020830152604082019050919050565b60006128e5602c83612f26565b91507f4552433732313a20617070726f76656420717565727920666f72206e6f6e657860008301527f697374656e7420746f6b656e00000000000000000000000000000000000000006020830152604082019050919050565b600061294b602983612f26565b91507f4552433732313a207472616e73666572206f6620746f6b656e2074686174206960008301527f73206e6f74206f776e00000000000000000000000000000000000000000000006020830152604082019050919050565b60006129b1602f83612f26565b91507f4552433732314d657461646174613a2055524920717565727920666f72206e6f60008301527f6e6578697374656e7420746f6b656e00000000000000000000000000000000006020830152604082019050919050565b6000612a17602183612f26565b91507f4552433732313a20617070726f76616c20746f2063757272656e74206f776e6560008301527f72000000000000000000000000000000000000000000000000000000000000006020830152604082019050919050565b6000612a7d603183612f26565b91507f4552433732313a207472616e736665722063616c6c6572206973206e6f74206f60008301527f776e6572206e6f7220617070726f7665640000000000000000000000000000006020830152604082019050919050565b6000612ae3602c83612f26565b91507f455243373231456e756d657261626c653a20676c6f62616c20696e646578206f60008301527f7574206f6620626f756e647300000000000000000000000000000000000000006020830152604082019050919050565b612b4581613067565b82525050565b6000612b578285612451565b9150612b638284612451565b91508190509392505050565b6000602082019050612b8460008301846123c1565b92915050565b6000608082019050612b9f60008301876123c1565b612bac60208301866123c1565b612bb96040830185612b3c565b8181036060830152612bcb81846123df565b905095945050505050565b6000602082019050612beb60008301846123d0565b92915050565b60006020820190508181036000830152612c0b8184612418565b905092915050565b60006020820190508181036000830152612c2c81612482565b9050919050565b60006020820190508181036000830152612c4c816124e8565b9050919050565b60006020820190508181036000830152612c6c8161254e565b9050919050565b60006020820190508181036000830152612c8c8161258e565b9050919050565b60006020820190508181036000830152612cac816125f4565b9050919050565b60006020820190508181036000830152612ccc81612634565b9050919050565b60006020820190508181036000830152612cec8161269a565b9050919050565b60006020820190508181036000830152612d0c81612700565b9050919050565b60006020820190508181036000830152612d2c81612766565b9050919050565b60006020820190508181036000830152612d4c816127cc565b9050919050565b60006020820190508181036000830152612d6c81612832565b9050919050565b60006020820190508181036000830152612d8c81612872565b9050919050565b60006020820190508181036000830152612dac816128d8565b9050919050565b60006020820190508181036000830152612dcc8161293e565b9050919050565b60006020820190508181036000830152612dec816129a4565b9050919050565b60006020820190508181036000830152612e0c81612a0a565b9050919050565b60006020820190508181036000830152612e2c81612a70565b9050919050565b60006020820190508181036000830152612e4c81612ad6565b9050919050565b6000602082019050612e686000830184612b3c565b92915050565b6000604051905081810181811067ffffffffffffffff82111715612e9557612e946131ec565b5b8060405250919050565b600067ffffffffffffffff821115612eba57612eb96131ec565b5b601f19601f8301169050602081019050919050565b600067ffffffffffffffff821115612eea57612ee96131ec565b5b601f19601f8301169050602081019050919050565b600081519050919050565b600081519050919050565b600082825260208201905092915050565b600082825260208201905092915050565b600081905092915050565b6000612f4d82613067565b9150612f5883613067565b9250827fffffffffffffffffffffffffffffffffffffffffffffffffffffffffffffffff03821115612f8d57612f8c61315f565b5b828201905092915050565b6000612fa382613067565b9150612fae83613067565b925082612fbe57612fbd61318e565b5b828204905092915050565b6000612fd482613067565b9150612fdf83613067565b925082821015612ff257612ff161315f565b5b828203905092915050565b600061300882613047565b9050919050565b60008115159050919050565b60007fffffffff0000000000000000000000000000000000000000000000000000000082169050919050565b600073ffffffffffffffffffffffffffffffffffffffff82169050919050565b6000819050919050565b82818337600083830152505050565b60005b8381101561309e578082015181840152602081019050613083565b838111156130ad576000848401525b50505050565b600060028204905060018216806130cb57607f821691505b602082108114156130df576130de6131bd565b5b50919050565b60006130f082613067565b91507fffffffffffffffffffffffffffffffffffffffffffffffffffffffffffffffff8214156131235761312261315f565b5b600182019050919050565b600061313982613067565b915061314483613067565b9250826131545761315361318e565b5b828206905092915050565b7f4e487b7100000000000000000000000000000000000000000000000000000000600052601160045260246000fd5b7f4e487b7100000000000000000000000000000000000000000000000000000000600052601260045260246000fd5b7f4e487b7100000000000000000000000000000000000000000000000000000000600052602260045260246000fd5b7f4e487b7100000000000000000000000000000000000000000000000000000000600052604160045260246000fd5b6000601f19601f8301169050919050565b61323581612ffd565b811461324057600080fd5b50565b61324c8161300f565b811461325757600080fd5b50565b6132638161301b565b811461326e57600080fd5b50565b61327a81613067565b811461328557600080fd5b5056fea26469706673582212208fed6da87261843e6a9f21c5e5ca6db7d30d716e68308f79ee184709885786b464736f6c63430008000033",
  "immutableReferences": {},
  "source": "// contracts/NFTmint.sol\r\n// SPDX-License-Identifier: MIT\r\npragma solidity ^0.8.0;\r\n\r\nimport \"@openzeppelin/contracts/token/ERC721/ERC721.sol\";\r\nimport \"@openzeppelin/contracts/token/ERC721/extensions/ERC721Enumerable.sol\";\r\nimport \"@openzeppelin/contracts/access/AccessControlEnumerable.sol\";\r\nimport \"@openzeppelin/contracts/utils/Counters.sol\";\r\n\r\n\r\ncontract NFTmint is ERC721Enumerable {\r\n    using Counters for Counters.Counter;\r\n    Counters.Counter private _tokenIds;\r\n\r\n        using Strings for uint256;\r\n\r\n    // Optional mapping for token URIs\r\n    mapping (uint256 => string) private _tokenURIs;\r\n\r\n\r\n    constructor() ERC721(\"Venafrum\", \"VNF\") {}\r\n\r\n    function tokenURI(uint256 tokenId) public view virtual override returns (string memory) {\r\n        require(_exists(tokenId), \"ERC721URIStorage: URI query for nonexistent token\");\r\n\r\n        string memory _tokenURI = _tokenURIs[tokenId];\r\n        string memory base = _baseURI();\r\n\r\n        // If there is no base URI, return the token URI.\r\n        if (bytes(base).length == 0) {\r\n            return _tokenURI;\r\n        }\r\n        // If both are set, concatenate the baseURI and tokenURI (via abi.encodePacked).\r\n        if (bytes(_tokenURI).length > 0) {\r\n            return string(abi.encodePacked(base, _tokenURI));\r\n        }\r\n\r\n        return super.tokenURI(tokenId);\r\n    }\r\n\r\n    function _setTokenURI(uint256 tokenId, string memory _tokenURI) internal virtual {\r\n        require(_exists(tokenId), \"ERC721URIStorage: URI set of nonexistent token\");\r\n        _tokenURIs[tokenId] = _tokenURI;\r\n    }\r\n\r\n    function _burn(uint256 tokenId) internal virtual override {\r\n        super._burn(tokenId);\r\n\r\n        if (bytes(_tokenURIs[tokenId]).length != 0) {\r\n            delete _tokenURIs[tokenId];\r\n        }\r\n    }\r\n\r\n\r\n\r\n    //mint a new NFT based on VNF ERC721\r\n    function mintOpera(address player, string memory tokenURI)\r\n        public\r\n        returns (uint256)\r\n    {\r\n        _tokenIds.increment();\r\n\r\n        uint256 newItemId = _tokenIds.current();\r\n        _mint(player, newItemId);\r\n        _setTokenURI(newItemId, tokenURI);\r\n\r\n        return newItemId;\r\n    }\r\n\r\n    //return current total supplys\r\n    function totalVNFSupply()\r\n        public view\r\n        returns (uint256)\r\n    {\r\n        uint256 supply = _tokenIds.current();\r\n\r\n        return supply;\r\n    }\r\n\r\n\r\n}",
  "sourcePath": "C:/Users/Alessandro/Desktop/Crypto/ERC721 NFT BSC TEST/contracts/NFTmint.sol",
  "compiler": {
    "name": "solc",
    "version": "0.8.0+commit.c7dfd78e.Emscripten.clang"
  },
  "schemaVersion": "3.4.1",
  "updatedAt": "2021-06-03T23:00:02.591Z",
  "networkType": "ethereum",
  "devdoc": {
    "kind": "dev",
    "methods": {
      "approve(address,uint256)": {
        "details": "See {IERC721-approve}."
      },
      "balanceOf(address)": {
        "details": "See {IERC721-balanceOf}."
      },
      "getApproved(uint256)": {
        "details": "See {IERC721-getApproved}."
      },
      "isApprovedForAll(address,address)": {
        "details": "See {IERC721-isApprovedForAll}."
      },
      "name()": {
        "details": "See {IERC721Metadata-name}."
      },
      "ownerOf(uint256)": {
        "details": "See {IERC721-ownerOf}."
      },
      "safeTransferFrom(address,address,uint256)": {
        "details": "See {IERC721-safeTransferFrom}."
      },
      "safeTransferFrom(address,address,uint256,bytes)": {
        "details": "See {IERC721-safeTransferFrom}."
      },
      "setApprovalForAll(address,bool)": {
        "details": "See {IERC721-setApprovalForAll}."
      },
      "supportsInterface(bytes4)": {
        "details": "See {IERC165-supportsInterface}."
      },
      "symbol()": {
        "details": "See {IERC721Metadata-symbol}."
      },
      "tokenByIndex(uint256)": {
        "details": "See {IERC721Enumerable-tokenByIndex}."
      },
      "tokenOfOwnerByIndex(address,uint256)": {
        "details": "See {IERC721Enumerable-tokenOfOwnerByIndex}."
      },
      "tokenURI(uint256)": {
        "details": "See {IERC721Metadata-tokenURI}."
      },
      "totalSupply()": {
        "details": "See {IERC721Enumerable-totalSupply}."
      },
      "transferFrom(address,address,uint256)": {
        "details": "See {IERC721-transferFrom}."
      }
    },
    "version": 1
  },
  "userdoc": {
    "kind": "user",
    "methods": {},
    "version": 1
  }
}